{
    "contractName": "MyGovernor",
    "abi": [
        {
            "inputs": [
                {
                    "internalType": "contract IVotes",
                    "name": "_token",
                    "type": "address"
                },
                {
                    "internalType": "contract TimelockController",
                    "name": "_timelock",
                    "type": "address"
                }
            ],
            "stateMutability": "nonpayable",
            "type": "constructor"
        },
        {
            "inputs": [],
            "name": "Empty",
            "type": "error"
        },
        {
            "anonymous": false,
            "inputs": [
                {
                    "indexed": false,
                    "internalType": "uint256",
                    "name": "proposalId",
                    "type": "uint256"
                }
            ],
            "name": "ProposalCanceled",
            "type": "event"
        },
        {
            "anonymous": false,
            "inputs": [
                {
                    "indexed": false,
                    "internalType": "uint256",
                    "name": "proposalId",
                    "type": "uint256"
                },
                {
                    "indexed": false,
                    "internalType": "address",
                    "name": "proposer",
                    "type": "address"
                },
                {
                    "indexed": false,
                    "internalType": "address[]",
                    "name": "targets",
                    "type": "address[]"
                },
                {
                    "indexed": false,
                    "internalType": "uint256[]",
                    "name": "values",
                    "type": "uint256[]"
                },
                {
                    "indexed": false,
                    "internalType": "string[]",
                    "name": "signatures",
                    "type": "string[]"
                },
                {
                    "indexed": false,
                    "internalType": "bytes[]",
                    "name": "calldatas",
                    "type": "bytes[]"
                },
                {
                    "indexed": false,
                    "internalType": "uint256",
                    "name": "startBlock",
                    "type": "uint256"
                },
                {
                    "indexed": false,
                    "internalType": "uint256",
                    "name": "endBlock",
                    "type": "uint256"
                },
                {
                    "indexed": false,
                    "internalType": "string",
                    "name": "description",
                    "type": "string"
                }
            ],
            "name": "ProposalCreated",
            "type": "event"
        },
        {
            "anonymous": false,
            "inputs": [
                {
                    "indexed": false,
                    "internalType": "uint256",
                    "name": "proposalId",
                    "type": "uint256"
                }
            ],
            "name": "ProposalExecuted",
            "type": "event"
        },
        {
            "anonymous": false,
            "inputs": [
                {
                    "indexed": false,
                    "internalType": "uint256",
                    "name": "proposalId",
                    "type": "uint256"
                },
                {
                    "indexed": false,
                    "internalType": "uint256",
                    "name": "eta",
                    "type": "uint256"
                }
            ],
            "name": "ProposalQueued",
            "type": "event"
        },
        {
            "anonymous": false,
            "inputs": [
                {
                    "indexed": false,
                    "internalType": "uint256",
                    "name": "oldProposalThreshold",
                    "type": "uint256"
                },
                {
                    "indexed": false,
                    "internalType": "uint256",
                    "name": "newProposalThreshold",
                    "type": "uint256"
                }
            ],
            "name": "ProposalThresholdSet",
            "type": "event"
        },
        {
            "anonymous": false,
            "inputs": [
                {
                    "indexed": false,
                    "internalType": "uint256",
                    "name": "oldQuorumNumerator",
                    "type": "uint256"
                },
                {
                    "indexed": false,
                    "internalType": "uint256",
                    "name": "newQuorumNumerator",
                    "type": "uint256"
                }
            ],
            "name": "QuorumNumeratorUpdated",
            "type": "event"
        },
        {
            "anonymous": false,
            "inputs": [
                {
                    "indexed": false,
                    "internalType": "address",
                    "name": "oldTimelock",
                    "type": "address"
                },
                {
                    "indexed": false,
                    "internalType": "address",
                    "name": "newTimelock",
                    "type": "address"
                }
            ],
            "name": "TimelockChange",
            "type": "event"
        },
        {
            "anonymous": false,
            "inputs": [
                {
                    "indexed": true,
                    "internalType": "address",
                    "name": "voter",
                    "type": "address"
                },
                {
                    "indexed": false,
                    "internalType": "uint256",
                    "name": "proposalId",
                    "type": "uint256"
                },
                {
                    "indexed": false,
                    "internalType": "uint8",
                    "name": "support",
                    "type": "uint8"
                },
                {
                    "indexed": false,
                    "internalType": "uint256",
                    "name": "weight",
                    "type": "uint256"
                },
                {
                    "indexed": false,
                    "internalType": "string",
                    "name": "reason",
                    "type": "string"
                }
            ],
            "name": "VoteCast",
            "type": "event"
        },
        {
            "anonymous": false,
            "inputs": [
                {
                    "indexed": true,
                    "internalType": "address",
                    "name": "voter",
                    "type": "address"
                },
                {
                    "indexed": false,
                    "internalType": "uint256",
                    "name": "proposalId",
                    "type": "uint256"
                },
                {
                    "indexed": false,
                    "internalType": "uint8",
                    "name": "support",
                    "type": "uint8"
                },
                {
                    "indexed": false,
                    "internalType": "uint256",
                    "name": "weight",
                    "type": "uint256"
                },
                {
                    "indexed": false,
                    "internalType": "string",
                    "name": "reason",
                    "type": "string"
                },
                {
                    "indexed": false,
                    "internalType": "bytes",
                    "name": "params",
                    "type": "bytes"
                }
            ],
            "name": "VoteCastWithParams",
            "type": "event"
        },
        {
            "anonymous": false,
            "inputs": [
                {
                    "indexed": false,
                    "internalType": "uint256",
                    "name": "oldVotingDelay",
                    "type": "uint256"
                },
                {
                    "indexed": false,
                    "internalType": "uint256",
                    "name": "newVotingDelay",
                    "type": "uint256"
                }
            ],
            "name": "VotingDelaySet",
            "type": "event"
        },
        {
            "anonymous": false,
            "inputs": [
                {
                    "indexed": false,
                    "internalType": "uint256",
                    "name": "oldVotingPeriod",
                    "type": "uint256"
                },
                {
                    "indexed": false,
                    "internalType": "uint256",
                    "name": "newVotingPeriod",
                    "type": "uint256"
                }
            ],
            "name": "VotingPeriodSet",
            "type": "event"
        },
        {
            "inputs": [],
            "name": "BALLOT_TYPEHASH",
            "outputs": [
                {
                    "internalType": "bytes32",
                    "name": "",
                    "type": "bytes32"
                }
            ],
            "stateMutability": "view",
            "type": "function"
        },
        {
            "inputs": [],
            "name": "COUNTING_MODE",
            "outputs": [
                {
                    "internalType": "string",
                    "name": "",
                    "type": "string"
                }
            ],
            "stateMutability": "pure",
            "type": "function"
        },
        {
            "inputs": [],
            "name": "EXTENDED_BALLOT_TYPEHASH",
            "outputs": [
                {
                    "internalType": "bytes32",
                    "name": "",
                    "type": "bytes32"
                }
            ],
            "stateMutability": "view",
            "type": "function"
        },
        {
            "inputs": [
                {
                    "internalType": "uint256",
                    "name": "proposalId",
                    "type": "uint256"
                },
                {
                    "internalType": "uint8",
                    "name": "support",
                    "type": "uint8"
                }
            ],
            "name": "castVote",
            "outputs": [
                {
                    "internalType": "uint256",
                    "name": "",
                    "type": "uint256"
                }
            ],
            "stateMutability": "nonpayable",
            "type": "function"
        },
        {
            "inputs": [
                {
                    "internalType": "uint256",
                    "name": "proposalId",
                    "type": "uint256"
                },
                {
                    "internalType": "uint8",
                    "name": "support",
                    "type": "uint8"
                },
                {
                    "internalType": "uint8",
                    "name": "v",
                    "type": "uint8"
                },
                {
                    "internalType": "bytes32",
                    "name": "r",
                    "type": "bytes32"
                },
                {
                    "internalType": "bytes32",
                    "name": "s",
                    "type": "bytes32"
                }
            ],
            "name": "castVoteBySig",
            "outputs": [
                {
                    "internalType": "uint256",
                    "name": "",
                    "type": "uint256"
                }
            ],
            "stateMutability": "nonpayable",
            "type": "function"
        },
        {
            "inputs": [
                {
                    "internalType": "uint256",
                    "name": "proposalId",
                    "type": "uint256"
                },
                {
                    "internalType": "uint8",
                    "name": "support",
                    "type": "uint8"
                },
                {
                    "internalType": "string",
                    "name": "reason",
                    "type": "string"
                }
            ],
            "name": "castVoteWithReason",
            "outputs": [
                {
                    "internalType": "uint256",
                    "name": "",
                    "type": "uint256"
                }
            ],
            "stateMutability": "nonpayable",
            "type": "function"
        },
        {
            "inputs": [
                {
                    "internalType": "uint256",
                    "name": "proposalId",
                    "type": "uint256"
                },
                {
                    "internalType": "uint8",
                    "name": "support",
                    "type": "uint8"
                },
                {
                    "internalType": "string",
                    "name": "reason",
                    "type": "string"
                },
                {
                    "internalType": "bytes",
                    "name": "params",
                    "type": "bytes"
                }
            ],
            "name": "castVoteWithReasonAndParams",
            "outputs": [
                {
                    "internalType": "uint256",
                    "name": "",
                    "type": "uint256"
                }
            ],
            "stateMutability": "nonpayable",
            "type": "function"
        },
        {
            "inputs": [
                {
                    "internalType": "uint256",
                    "name": "proposalId",
                    "type": "uint256"
                },
                {
                    "internalType": "uint8",
                    "name": "support",
                    "type": "uint8"
                },
                {
                    "internalType": "string",
                    "name": "reason",
                    "type": "string"
                },
                {
                    "internalType": "bytes",
                    "name": "params",
                    "type": "bytes"
                },
                {
                    "internalType": "uint8",
                    "name": "v",
                    "type": "uint8"
                },
                {
                    "internalType": "bytes32",
                    "name": "r",
                    "type": "bytes32"
                },
                {
                    "internalType": "bytes32",
                    "name": "s",
                    "type": "bytes32"
                }
            ],
            "name": "castVoteWithReasonAndParamsBySig",
            "outputs": [
                {
                    "internalType": "uint256",
                    "name": "",
                    "type": "uint256"
                }
            ],
            "stateMutability": "nonpayable",
            "type": "function"
        },
        {
            "inputs": [
                {
                    "internalType": "address[]",
                    "name": "targets",
                    "type": "address[]"
                },
                {
                    "internalType": "uint256[]",
                    "name": "values",
                    "type": "uint256[]"
                },
                {
                    "internalType": "bytes[]",
                    "name": "calldatas",
                    "type": "bytes[]"
                },
                {
                    "internalType": "bytes32",
                    "name": "descriptionHash",
                    "type": "bytes32"
                }
            ],
            "name": "execute",
            "outputs": [
                {
                    "internalType": "uint256",
                    "name": "",
                    "type": "uint256"
                }
            ],
            "stateMutability": "payable",
            "type": "function"
        },
        {
            "inputs": [
                {
                    "internalType": "address",
                    "name": "account",
                    "type": "address"
                },
                {
                    "internalType": "uint256",
                    "name": "blockNumber",
                    "type": "uint256"
                }
            ],
            "name": "getVotes",
            "outputs": [
                {
                    "internalType": "uint256",
                    "name": "",
                    "type": "uint256"
                }
            ],
            "stateMutability": "view",
            "type": "function"
        },
        {
            "inputs": [
                {
                    "internalType": "address",
                    "name": "account",
                    "type": "address"
                },
                {
                    "internalType": "uint256",
                    "name": "blockNumber",
                    "type": "uint256"
                },
                {
                    "internalType": "bytes",
                    "name": "params",
                    "type": "bytes"
                }
            ],
            "name": "getVotesWithParams",
            "outputs": [
                {
                    "internalType": "uint256",
                    "name": "",
                    "type": "uint256"
                }
            ],
            "stateMutability": "view",
            "type": "function"
        },
        {
            "inputs": [
                {
                    "internalType": "uint256",
                    "name": "proposalId",
                    "type": "uint256"
                },
                {
                    "internalType": "address",
                    "name": "account",
                    "type": "address"
                }
            ],
            "name": "hasVoted",
            "outputs": [
                {
                    "internalType": "bool",
                    "name": "",
                    "type": "bool"
                }
            ],
            "stateMutability": "view",
            "type": "function"
        },
        {
            "inputs": [
                {
                    "internalType": "address[]",
                    "name": "targets",
                    "type": "address[]"
                },
                {
                    "internalType": "uint256[]",
                    "name": "values",
                    "type": "uint256[]"
                },
                {
                    "internalType": "bytes[]",
                    "name": "calldatas",
                    "type": "bytes[]"
                },
                {
                    "internalType": "bytes32",
                    "name": "descriptionHash",
                    "type": "bytes32"
                }
            ],
            "name": "hashProposal",
            "outputs": [
                {
                    "internalType": "uint256",
                    "name": "",
                    "type": "uint256"
                }
            ],
            "stateMutability": "pure",
            "type": "function"
        },
        {
            "inputs": [],
            "name": "name",
            "outputs": [
                {
                    "internalType": "string",
                    "name": "",
                    "type": "string"
                }
            ],
            "stateMutability": "view",
            "type": "function"
        },
        {
            "inputs": [
                {
                    "internalType": "address",
                    "name": "",
                    "type": "address"
                },
                {
                    "internalType": "address",
                    "name": "",
                    "type": "address"
                },
                {
                    "internalType": "uint256[]",
                    "name": "",
                    "type": "uint256[]"
                },
                {
                    "internalType": "uint256[]",
                    "name": "",
                    "type": "uint256[]"
                },
                {
                    "internalType": "bytes",
                    "name": "",
                    "type": "bytes"
                }
            ],
            "name": "onERC1155BatchReceived",
            "outputs": [
                {
                    "internalType": "bytes4",
                    "name": "",
                    "type": "bytes4"
                }
            ],
            "stateMutability": "nonpayable",
            "type": "function"
        },
        {
            "inputs": [
                {
                    "internalType": "address",
                    "name": "",
                    "type": "address"
                },
                {
                    "internalType": "address",
                    "name": "",
                    "type": "address"
                },
                {
                    "internalType": "uint256",
                    "name": "",
                    "type": "uint256"
                },
                {
                    "internalType": "uint256",
                    "name": "",
                    "type": "uint256"
                },
                {
                    "internalType": "bytes",
                    "name": "",
                    "type": "bytes"
                }
            ],
            "name": "onERC1155Received",
            "outputs": [
                {
                    "internalType": "bytes4",
                    "name": "",
                    "type": "bytes4"
                }
            ],
            "stateMutability": "nonpayable",
            "type": "function"
        },
        {
            "inputs": [
                {
                    "internalType": "address",
                    "name": "",
                    "type": "address"
                },
                {
                    "internalType": "address",
                    "name": "",
                    "type": "address"
                },
                {
                    "internalType": "uint256",
                    "name": "",
                    "type": "uint256"
                },
                {
                    "internalType": "bytes",
                    "name": "",
                    "type": "bytes"
                }
            ],
            "name": "onERC721Received",
            "outputs": [
                {
                    "internalType": "bytes4",
                    "name": "",
                    "type": "bytes4"
                }
            ],
            "stateMutability": "nonpayable",
            "type": "function"
        },
        {
            "inputs": [
                {
                    "internalType": "uint256",
                    "name": "proposalId",
                    "type": "uint256"
                }
            ],
            "name": "proposalDeadline",
            "outputs": [
                {
                    "internalType": "uint256",
                    "name": "",
                    "type": "uint256"
                }
            ],
            "stateMutability": "view",
            "type": "function"
        },
        {
            "inputs": [
                {
                    "internalType": "uint256",
                    "name": "proposalId",
                    "type": "uint256"
                }
            ],
            "name": "proposalEta",
            "outputs": [
                {
                    "internalType": "uint256",
                    "name": "",
                    "type": "uint256"
                }
            ],
            "stateMutability": "view",
            "type": "function"
        },
        {
            "inputs": [
                {
                    "internalType": "uint256",
                    "name": "proposalId",
                    "type": "uint256"
                }
            ],
            "name": "proposalSnapshot",
            "outputs": [
                {
                    "internalType": "uint256",
                    "name": "",
                    "type": "uint256"
                }
            ],
            "stateMutability": "view",
            "type": "function"
        },
        {
            "inputs": [],
            "name": "proposalThreshold",
            "outputs": [
                {
                    "internalType": "uint256",
                    "name": "",
                    "type": "uint256"
                }
            ],
            "stateMutability": "view",
            "type": "function"
        },
        {
            "inputs": [
                {
                    "internalType": "uint256",
                    "name": "proposalId",
                    "type": "uint256"
                }
            ],
            "name": "proposalVotes",
            "outputs": [
                {
                    "internalType": "uint256",
                    "name": "againstVotes",
                    "type": "uint256"
                },
                {
                    "internalType": "uint256",
                    "name": "forVotes",
                    "type": "uint256"
                },
                {
                    "internalType": "uint256",
                    "name": "abstainVotes",
                    "type": "uint256"
                }
            ],
            "stateMutability": "view",
            "type": "function"
        },
        {
            "inputs": [
                {
                    "internalType": "address[]",
                    "name": "targets",
                    "type": "address[]"
                },
                {
                    "internalType": "uint256[]",
                    "name": "values",
                    "type": "uint256[]"
                },
                {
                    "internalType": "bytes[]",
                    "name": "calldatas",
                    "type": "bytes[]"
                },
                {
                    "internalType": "string",
                    "name": "description",
                    "type": "string"
                }
            ],
            "name": "propose",
            "outputs": [
                {
                    "internalType": "uint256",
                    "name": "",
                    "type": "uint256"
                }
            ],
            "stateMutability": "nonpayable",
            "type": "function"
        },
        {
            "inputs": [
                {
                    "internalType": "address[]",
                    "name": "targets",
                    "type": "address[]"
                },
                {
                    "internalType": "uint256[]",
                    "name": "values",
                    "type": "uint256[]"
                },
                {
                    "internalType": "bytes[]",
                    "name": "calldatas",
                    "type": "bytes[]"
                },
                {
                    "internalType": "bytes32",
                    "name": "descriptionHash",
                    "type": "bytes32"
                }
            ],
            "name": "queue",
            "outputs": [
                {
                    "internalType": "uint256",
                    "name": "",
                    "type": "uint256"
                }
            ],
            "stateMutability": "nonpayable",
            "type": "function"
        },
        {
            "inputs": [
                {
                    "internalType": "uint256",
                    "name": "blockNumber",
                    "type": "uint256"
                }
            ],
            "name": "quorum",
            "outputs": [
                {
                    "internalType": "uint256",
                    "name": "",
                    "type": "uint256"
                }
            ],
            "stateMutability": "view",
            "type": "function"
        },
        {
            "inputs": [],
            "name": "quorumDenominator",
            "outputs": [
                {
                    "internalType": "uint256",
                    "name": "",
                    "type": "uint256"
                }
            ],
            "stateMutability": "view",
            "type": "function"
        },
        {
            "inputs": [
                {
                    "internalType": "uint256",
                    "name": "blockNumber",
                    "type": "uint256"
                }
            ],
            "name": "quorumNumerator",
            "outputs": [
                {
                    "internalType": "uint256",
                    "name": "",
                    "type": "uint256"
                }
            ],
            "stateMutability": "view",
            "type": "function"
        },
        {
            "inputs": [],
            "name": "quorumNumerator",
            "outputs": [
                {
                    "internalType": "uint256",
                    "name": "",
                    "type": "uint256"
                }
            ],
            "stateMutability": "view",
            "type": "function"
        },
        {
            "inputs": [
                {
                    "internalType": "address",
                    "name": "target",
                    "type": "address"
                },
                {
                    "internalType": "uint256",
                    "name": "value",
                    "type": "uint256"
                },
                {
                    "internalType": "bytes",
                    "name": "data",
                    "type": "bytes"
                }
            ],
            "name": "relay",
            "outputs": [],
            "stateMutability": "payable",
            "type": "function"
        },
        {
            "inputs": [
                {
                    "internalType": "uint256",
                    "name": "newProposalThreshold",
                    "type": "uint256"
                }
            ],
            "name": "setProposalThreshold",
            "outputs": [],
            "stateMutability": "nonpayable",
            "type": "function"
        },
        {
            "inputs": [
                {
                    "internalType": "uint256",
                    "name": "newVotingDelay",
                    "type": "uint256"
                }
            ],
            "name": "setVotingDelay",
            "outputs": [],
            "stateMutability": "nonpayable",
            "type": "function"
        },
        {
            "inputs": [
                {
                    "internalType": "uint256",
                    "name": "newVotingPeriod",
                    "type": "uint256"
                }
            ],
            "name": "setVotingPeriod",
            "outputs": [],
            "stateMutability": "nonpayable",
            "type": "function"
        },
        {
            "inputs": [
                {
                    "internalType": "uint256",
                    "name": "proposalId",
                    "type": "uint256"
                }
            ],
            "name": "state",
            "outputs": [
                {
                    "internalType": "enum IGovernor.ProposalState",
                    "name": "",
                    "type": "uint8"
                }
            ],
            "stateMutability": "view",
            "type": "function"
        },
        {
            "inputs": [
                {
                    "internalType": "bytes4",
                    "name": "interfaceId",
                    "type": "bytes4"
                }
            ],
            "name": "supportsInterface",
            "outputs": [
                {
                    "internalType": "bool",
                    "name": "",
                    "type": "bool"
                }
            ],
            "stateMutability": "view",
            "type": "function"
        },
        {
            "inputs": [],
            "name": "timelock",
            "outputs": [
                {
                    "internalType": "address",
                    "name": "",
                    "type": "address"
                }
            ],
            "stateMutability": "view",
            "type": "function"
        },
        {
            "inputs": [],
            "name": "token",
            "outputs": [
                {
                    "internalType": "contract IVotes",
                    "name": "",
                    "type": "address"
                }
            ],
            "stateMutability": "view",
            "type": "function"
        },
        {
            "inputs": [
                {
                    "internalType": "uint256",
                    "name": "newQuorumNumerator",
                    "type": "uint256"
                }
            ],
            "name": "updateQuorumNumerator",
            "outputs": [],
            "stateMutability": "nonpayable",
            "type": "function"
        },
        {
            "inputs": [
                {
                    "internalType": "contract TimelockController",
                    "name": "newTimelock",
                    "type": "address"
                }
            ],
            "name": "updateTimelock",
            "outputs": [],
            "stateMutability": "nonpayable",
            "type": "function"
        },
        {
            "inputs": [],
            "name": "version",
            "outputs": [
                {
                    "internalType": "string",
                    "name": "",
                    "type": "string"
                }
            ],
            "stateMutability": "view",
            "type": "function"
        },
        {
            "inputs": [],
            "name": "votingDelay",
            "outputs": [
                {
                    "internalType": "uint256",
                    "name": "",
                    "type": "uint256"
                }
            ],
            "stateMutability": "view",
            "type": "function"
        },
        {
            "inputs": [],
            "name": "votingPeriod",
            "outputs": [
                {
                    "internalType": "uint256",
                    "name": "",
                    "type": "uint256"
                }
            ],
            "stateMutability": "view",
            "type": "function"
        },
        {
            "stateMutability": "payable",
            "type": "receive"
        }
    ],
    "bytecode": "6101606040523480156200001257600080fd5b506040516200450b3803806200450b833981016040819052620000359162000805565b80600483600161c4e060006040518060400160405280600a81526020016926bca3b7bb32b93737b960b11b81525080620000746200016560201b60201c565b815160209283012081519183019190912060e08290526101008190524660a0818152604080517f8b73c3c69bb8fe3d512ecc4cf759cc79239f7b179b0ffacaa9a75d522b39400f818801819052818301969096526060810194909452608080850193909352308483018190528151808603909301835260c094850190915281519190950120905291909152610120526000620001118282620008e9565b506200011f90508362000180565b6200012a82620001c1565b620001358162000268565b5050506001600160a01b0316610140526200015081620002a9565b506200015c8162000421565b505050620009dd565b6040805180820190915260018152603160f81b602082015290565b60045460408051918252602082018390527fc565b045403dc03c2eea82b81a0465edad9e2e7fc4d97e11421c209da93d7a93910160405180910390a1600455565b60008111620002275760405162461bcd60e51b815260206004820152602760248201527f476f7665726e6f7253657474696e67733a20766f74696e6720706572696f6420604482015266746f6f206c6f7760c81b60648201526084015b60405180910390fd5b60055460408051918252602082018390527f7e3f7f0708a84de9203036abaa450dccc85ad5ff52f78c170f3edb55cf5e8828910160405180910390a1600555565b60065460408051918252602082018390527fccb45da8d5717e6c4544694297c4ba5cf151d455c9bb0ed4fc7a38411bc05461910160405180910390a1600655565b60648111156200032e5760405162461bcd60e51b815260206004820152604360248201527f476f7665726e6f72566f74657351756f72756d4672616374696f6e3a2071756f60448201527f72756d4e756d657261746f72206f7665722071756f72756d44656e6f6d696e616064820152623a37b960e91b608482015260a4016200021e565b60006200033a6200048a565b905080158015906200034c5750600954155b15620003c75760096000016040518060400160405280600063ffffffff1681526020016200038584620004c260201b620014a61760201c565b6001600160e01b0390811690915282546001810184556000938452602093849020835194909301519091166401000000000263ffffffff909316929092179101555b620003e28260096200053160201b620015131790919060201c565b505060408051828152602081018490527f0553476bf02ef2726e8ce5ced78d63e26e602e4a2257b1f559418e24b4633997910160405180910390a15050565b600a54604080516001600160a01b03928316815291831660208301527f08f74ea46ef7894f65eabfb5e6e695de773a000b47c529ab559178069b226401910160405180910390a1600a80546001600160a01b0319166001600160a01b0392909216919091179055565b60095460009015620004bb57620004ad60096200058460201b620015491760201c565b6001600160e01b0316905090565b5060085490565b60006001600160e01b038211156200052d5760405162461bcd60e51b815260206004820152602760248201527f53616665436173743a2076616c756520646f65736e27742066697420696e20326044820152663234206269747360c81b60648201526084016200021e565b5090565b6000806200056e846000016200055243620005d260201b620015871760201c565b6200056886620004c260201b620014a61760201c565b62000639565b6001600160e01b03918216969116945092505050565b80546000908015620005c857620005b083620005a2600184620009b5565b600091825260209091200190565b5464010000000090046001600160e01b0316620005cb565b60005b9392505050565b600063ffffffff8211156200052d5760405162461bcd60e51b815260206004820152602660248201527f53616665436173743a2076616c756520646f65736e27742066697420696e203360448201526532206269747360d01b60648201526084016200021e565b8254600090819080156200078e5760006200065b87620005a2600185620009b5565b60408051808201909152905463ffffffff8082168084526401000000009092046001600160e01b031660208401529192509087161015620006df5760405162461bcd60e51b815260206004820152601760248201527f436865636b706f696e743a20696e76616c6964206b657900000000000000000060448201526064016200021e565b805163ffffffff8088169116036200072d57846200070488620005a2600186620009b5565b80546001600160e01b03929092166401000000000263ffffffff9092169190911790556200077d565b6040805180820190915263ffffffff80881682526001600160e01b0380881660208085019182528b54600181018d5560008d81529190912094519151909216640100000000029216919091179101555b602001519250839150620007e49050565b50506040805180820190915263ffffffff80851682526001600160e01b0380851660208085019182528854600181018a5560008a8152918220955192519093166401000000000291909316179201919091559050815b935093915050565b6001600160a01b03811681146200080257600080fd5b50565b600080604083850312156200081957600080fd5b82516200082681620007ec565b60208401519092506200083981620007ec565b809150509250929050565b634e487b7160e01b600052604160045260246000fd5b600181811c908216806200086f57607f821691505b6020821081036200089057634e487b7160e01b600052602260045260246000fd5b50919050565b601f821115620008e457600081815260208120601f850160051c81016020861015620008bf5750805b601f850160051c820191505b81811015620008e057828155600101620008cb565b5050505b505050565b81516001600160401b0381111562000905576200090562000844565b6200091d816200091684546200085a565b8462000896565b602080601f8311600181146200095557600084156200093c5750858301515b600019600386901b1c1916600185901b178555620008e0565b600085815260208120601f198616915b82811015620009865788860151825594840194600190910190840162000965565b5085821015620009a55787850151600019600388901b60f8161c191681555b5050505050600190811b01905550565b81810381811115620009d757634e487b7160e01b600052601160045260246000fd5b92915050565b60805160a05160c05160e051610100516101205161014051613ac562000a466000396000818161086901528181611fe101526121d5015260006124f4015260006125430152600061251e01526000612477015260006124a1015260006124cb0152613ac56000f3fe60806040526004361061024a5760003560e01c80637b3c71d311610139578063c28bc2fa116100b6578063ea0217cf1161007a578063ea0217cf146107ab578063eb9019d4146107cb578063ece40cc1146107eb578063f23a6e611461080b578063f8ce560a14610837578063fc0c546a1461085757600080fd5b8063c28bc2fa146106cc578063c59057e4146106df578063d33219b4146106ff578063dd4e2ba514610731578063deaaa7cc1461077757600080fd5b8063a890c910116100fd578063a890c9101461062b578063ab58fb8e1461064b578063b58131b01461066b578063bc197c8114610680578063c01f9e37146106ac57600080fd5b80637b3c71d3146105a25780637d5e81e2146105c257806397c3d334146105e25780639a802a6d146105f6578063a7713a701461061657600080fd5b80633932abb1116101c757806354fd4d501161018b57806354fd4d50146104f857806356781388146105225780635f398a141461054257806360c4247f1461056257806370b0f6601461058257600080fd5b80633932abb1146103f75780633bccf4fd1461040c5780633e4f49e61461042c5780634385963214610459578063544ffc9c146104a357600080fd5b8063150b7a021161020e578063150b7a021461032c578063160cbed7146103705780632656227d146103905780632d63f693146103a35780632fe3e261146103c357600080fd5b806301ffc9a71461027257806302a251a3146102a757806303420181146102ca57806306f3f9e6146102ea57806306fdde031461030a57600080fd5b3661026d573061025861088b565b6001600160a01b03161461026b57600080fd5b005b600080fd5b34801561027e57600080fd5b5061029261028d366004612c1a565b6108a4565b60405190151581526020015b60405180910390f35b3480156102b357600080fd5b506102bc6108b5565b60405190815260200161029e565b3480156102d657600080fd5b506102bc6102e5366004612d58565b6108c0565b3480156102f657600080fd5b5061026b610305366004612dfe565b6109b8565b34801561031657600080fd5b5061031f610a4b565b60405161029e9190612e5d565b34801561033857600080fd5b50610357610347366004612e85565b630a85bd0160e11b949350505050565b6040516001600160e01b0319909116815260200161029e565b34801561037c57600080fd5b506102bc61038b366004613061565b610add565b6102bc61039e366004613061565b610cdd565b3480156103af57600080fd5b506102bc6103be366004612dfe565b610dca565b3480156103cf57600080fd5b506102bc7fb3b3f3b703cd84ce352197dcff232b1b5d3cfb2025ce47cf04742d0651f1af8881565b34801561040357600080fd5b506102bc610e01565b34801561041857600080fd5b506102bc6104273660046130f0565b610e0c565b34801561043857600080fd5b5061044c610447366004612dfe565b610e82565b60405161029e9190613154565b34801561046557600080fd5b5061029261047436600461317c565b60008281526007602090815260408083206001600160a01b038516845260030190915290205460ff1692915050565b3480156104af57600080fd5b506104dd6104be366004612dfe565b6000908152600760205260409020805460018201546002909201549092565b6040805193845260208401929092529082015260600161029e565b34801561050457600080fd5b506040805180820190915260018152603160f81b602082015261031f565b34801561052e57600080fd5b506102bc61053d3660046131ac565b610e8d565b34801561054e57600080fd5b506102bc61055d3660046131d8565b610eb6565b34801561056e57600080fd5b506102bc61057d366004612dfe565b610f00565b34801561058e57600080fd5b5061026b61059d366004612dfe565b610f97565b3480156105ae57600080fd5b506102bc6105bd36600461325b565b61101e565b3480156105ce57600080fd5b506102bc6105dd3660046132b4565b611070565b3480156105ee57600080fd5b5060646102bc565b34801561060257600080fd5b506102bc610611366004613368565b611087565b34801561062257600080fd5b506102bc61109e565b34801561063757600080fd5b5061026b6106463660046133c0565b6110c8565b34801561065757600080fd5b506102bc610666366004612dfe565b61114f565b34801561067757600080fd5b506102bc6111e9565b34801561068c57600080fd5b5061035761069b3660046133dd565b63bc197c8160e01b95945050505050565b3480156106b857600080fd5b506102bc6106c7366004612dfe565b6111f4565b61026b6106da366004613470565b611223565b3480156106eb57600080fd5b506102bc6106fa366004613061565b611332565b34801561070b57600080fd5b50600a546001600160a01b03165b6040516001600160a01b03909116815260200161029e565b34801561073d57600080fd5b506040805180820190915260208082527f737570706f72743d627261766f2671756f72756d3d666f722c6162737461696e9082015261031f565b34801561078357600080fd5b506102bc7f150214d74d59b7d1e90c73fc22ef3d991dd0a76b046543d4d80ab92d2a50328f81565b3480156107b757600080fd5b5061026b6107c6366004612dfe565b61136c565b3480156107d757600080fd5b506102bc6107e63660046134b3565b6113f3565b3480156107f757600080fd5b5061026b610806366004612dfe565b611414565b34801561081757600080fd5b506103576108263660046134df565b63f23a6e6160e01b95945050505050565b34801561084357600080fd5b506102bc610852366004612dfe565b61149b565b34801561086357600080fd5b506107197f000000000000000000000000000000000000000000000000000000000000000081565b600061089f600a546001600160a01b031690565b905090565b60006108af826115ec565b92915050565b600061089f60055490565b60008061096461095c7fb3b3f3b703cd84ce352197dcff232b1b5d3cfb2025ce47cf04742d0651f1af888c8c8c8c6040516108fc929190613547565b60405180910390208b80519060200120604051602001610941959493929190948552602085019390935260ff9190911660408401526060830152608082015260a00190565b60405160208183030381529060405280519060200120611611565b86868661165f565b90506109aa8a828b8b8b8080601f0160208091040260200160405190810160405280939291908181526020018383808284376000920191909152508d925061167d915050565b9a9950505050505050505050565b6109c061088b565b6001600160a01b0316336001600160a01b0316146109f95760405162461bcd60e51b81526004016109f090613557565b60405180910390fd5b30610a0261088b565b6001600160a01b031614610a3f5760008036604051610a22929190613547565b604051809103902090505b80610a3860026117e2565b03610a2d57505b610a4881611861565b50565b606060008054610a5a9061358e565b80601f0160208091040260200160405190810160405280929190818152602001828054610a869061358e565b8015610ad35780601f10610aa857610100808354040283529160200191610ad3565b820191906000526020600020905b815481529060010190602001808311610ab657829003601f168201915b5050505050905090565b600080610aec86868686611332565b90506004610af982610e82565b6007811115610b0a57610b0a61313e565b14610b275760405162461bcd60e51b81526004016109f0906135c8565b600a546040805163793d064960e11b815290516000926001600160a01b03169163f27a0c929160048083019260209291908290030181865afa158015610b71573d6000803e3d6000fd5b505050506040513d601f19601f82011682018060405250810190610b959190613609565b600a5460405163b1c5f42760e01b81529192506001600160a01b03169063b1c5f42790610bcf908a908a908a906000908b906004016136eb565b602060405180830381865afa158015610bec573d6000803e3d6000fd5b505050506040513d601f19601f82011682018060405250810190610c109190613609565b6000838152600b602052604080822092909255600a5491516308f2a0bb60e41b81526001600160a01b0390921691638f2a0bb091610c5b918b918b918b91908b908990600401613739565b600060405180830381600087803b158015610c7557600080fd5b505af1158015610c89573d6000803e3d6000fd5b505050507f9a2e42fd6722813d69113e7d0079d3d940171428df7373df9c7f7617cfda2892828242610cbb91906137a7565b6040805192835260208301919091520160405180910390a15095945050505050565b600080610cec86868686611332565b90506000610cf982610e82565b90506004816007811115610d0f57610d0f61313e565b1480610d2c57506005816007811115610d2a57610d2a61313e565b145b610d485760405162461bcd60e51b81526004016109f0906135c8565b600082815260016020818152604092839020600201805460ff191690921790915590518381527f712ae1383f79ac853f8d882153778e0260ef8f03b504e2866e0593e04d2b291f910160405180910390a1610da682888888886119ad565b610db38288888888611a4f565b610dc08288888888611a5c565b5095945050505050565b60008181526001602090815260408083208151928301909152546001600160401b0316908190525b6001600160401b031692915050565b600061089f60045490565b604080517f150214d74d59b7d1e90c73fc22ef3d991dd0a76b046543d4d80ab92d2a50328f602082015290810186905260ff851660608201526000908190610e5a9061095c90608001610941565b9050610e7787828860405180602001604052806000815250611a95565b979650505050505050565b60006108af82611ab8565b600080339050610eae84828560405180602001604052806000815250611a95565b949350505050565b600080339050610e7787828888888080601f0160208091040260200160405190810160405280939291908181526020018383808284376000920191909152508a925061167d915050565b600954600090808203610f17575050600854919050565b60006009610f266001846137ba565b81548110610f3657610f366137cd565b60009182526020918290206040805180820190915291015463ffffffff8116808352600160201b9091046001600160e01b03169282019290925291508410610f8c57602001516001600160e01b03169392505050565b610eae600985611c02565b610f9f61088b565b6001600160a01b0316336001600160a01b031614610fcf5760405162461bcd60e51b81526004016109f090613557565b30610fd861088b565b6001600160a01b0316146110155760008036604051610ff8929190613547565b604051809103902090505b8061100e60026117e2565b0361100357505b610a4881611cb4565b60008033905061106686828787878080601f016020809104026020016040519081016040528093929190818152602001838380828437600092019190915250611a9592505050565b9695505050505050565b600061107e85858585611cf5565b95945050505050565b6000611094848484611fb8565b90505b9392505050565b600954600090156110c1576110b36009611549565b6001600160e01b0316905090565b5060085490565b6110d061088b565b6001600160a01b0316336001600160a01b0316146111005760405162461bcd60e51b81526004016109f090613557565b3061110961088b565b6001600160a01b0316146111465760008036604051611129929190613547565b604051809103902090505b8061113f60026117e2565b0361113457505b610a488161204e565b600a546000828152600b602052604080822054905163d45c443560e01b81526004810191909152909182916001600160a01b039091169063d45c443590602401602060405180830381865afa1580156111ac573d6000803e3d6000fd5b505050506040513d601f19601f820116820180604052508101906111d09190613609565b9050806001146111e05780611097565b60009392505050565b600061089f60065490565b60008181526001602081815260408084208151928301909152909101546001600160401b031690819052610df2565b61122b61088b565b6001600160a01b0316336001600160a01b03161461125b5760405162461bcd60e51b81526004016109f090613557565b3061126461088b565b6001600160a01b0316146112a15760008036604051611284929190613547565b604051809103902090505b8061129a60026117e2565b0361128f57505b600080856001600160a01b03168585856040516112bf929190613547565b60006040518083038185875af1925050503d80600081146112fc576040519150601f19603f3d011682016040523d82523d6000602084013e611301565b606091505b50915091506113298282604051806060016040528060288152602001613a68602891396120b7565b50505050505050565b60008484848460405160200161134b94939291906137e3565b60408051601f19818403018152919052805160209091012095945050505050565b61137461088b565b6001600160a01b0316336001600160a01b0316146113a45760405162461bcd60e51b81526004016109f090613557565b306113ad61088b565b6001600160a01b0316146113ea57600080366040516113cd929190613547565b604051809103902090505b806113e360026117e2565b036113d857505b610a48816120d0565b6000611097838361140f60408051602081019091526000815290565b611fb8565b61141c61088b565b6001600160a01b0316336001600160a01b03161461144c5760405162461bcd60e51b81526004016109f090613557565b3061145561088b565b6001600160a01b0316146114925760008036604051611475929190613547565b604051809103902090505b8061148b60026117e2565b0361148057505b610a4881612171565b60006108af826121b2565b60006001600160e01b0382111561150f5760405162461bcd60e51b815260206004820152602760248201527f53616665436173743a2076616c756520646f65736e27742066697420696e20326044820152663234206269747360c81b60648201526084016109f0565b5090565b6000806115318461152343611587565b61152c866114a6565b61225c565b6001600160e01b0391821693501690505b9250929050565b805460009080156111e057611571836115636001846137ba565b600091825260209091200190565b54600160201b90046001600160e01b0316611097565b600063ffffffff82111561150f5760405162461bcd60e51b815260206004820152602660248201527f53616665436173743a2076616c756520646f65736e27742066697420696e203360448201526532206269747360d01b60648201526084016109f0565b60006001600160e01b03198216636e665ced60e01b14806108af57506108af826123ff565b60006108af61161e61246a565b8360405161190160f01b6020820152602281018390526042810182905260009060620160405160208183030381529060405280519060200120905092915050565b600080600061167087878787612591565b91509150610dc081612655565b600085815260016020819052604082209061169788610e82565b60078111156116a8576116a861313e565b146117015760405162461bcd60e51b815260206004820152602360248201527f476f7665726e6f723a20766f7465206e6f742063757272656e746c792061637460448201526269766560e81b60648201526084016109f0565b604080516020810190915281546001600160401b03169081905260009061172a90889086611fb8565b9050611739888888848861279f565b835160000361178e57866001600160a01b03167fb8e138887d0aa13bab447e82de9d5c1777041ecd21ca36ba824ff1e6c07ddda489888489604051611781949392919061382e565b60405180910390a2610e77565b866001600160a01b03167fe2babfbac5889a709b63bb7f598b324e08bc5a4fb9ec647fb3cbc9ec07eb871289888489896040516117cf959493929190613856565b60405180910390a2979650505050505050565b60006117fd8254600f81810b600160801b909204900b131590565b1561181b57604051631ed9509560e11b815260040160405180910390fd5b508054600f0b6000818152600180840160205260408220805492905583546fffffffffffffffffffffffffffffffff191692016001600160801b03169190911790915590565b60648111156118e45760405162461bcd60e51b815260206004820152604360248201527f476f7665726e6f72566f74657351756f72756d4672616374696f6e3a2071756f60448201527f72756d4e756d657261746f72206f7665722071756f72756d44656e6f6d696e616064820152623a37b960e91b608482015260a4016109f0565b60006118ee61109e565b905080158015906118ff5750600954155b1561196357604080518082019091526000815260099060208101611922846114a6565b6001600160e01b039081169091528254600181018455600093845260209384902083519490930151909116600160201b0263ffffffff909316929092179101555b61196e600983611513565b505060408051828152602081018490527f0553476bf02ef2726e8ce5ced78d63e26e602e4a2257b1f559418e24b4633997910160405180910390a15050565b306119b661088b565b6001600160a01b031614611a485760005b8451811015611a4657306001600160a01b03168582815181106119ec576119ec6137cd565b60200260200101516001600160a01b031603611a3657611a36838281518110611a1757611a176137cd565b602002602001015180519060200120600261291990919063ffffffff16565b611a3f8161389c565b90506119c7565b505b5050505050565b611a488585858585612955565b30611a6561088b565b6001600160a01b031614611a4857600254600f81810b600160801b909204900b1315611a48576000600255611a48565b600061107e85858585611ab360408051602081019091526000815290565b61167d565b600080611ac4836129c9565b90506004816007811115611ada57611ada61313e565b14611ae55792915050565b6000838152600b602052604090205480611b00575092915050565b600a54604051632ab0f52960e01b8152600481018390526001600160a01b0390911690632ab0f52990602401602060405180830381865afa158015611b49573d6000803e3d6000fd5b505050506040513d601f19601f82011682018060405250810190611b6d91906138b5565b15611b7c575060079392505050565b600a54604051632c258a9f60e11b8152600481018390526001600160a01b039091169063584b153e90602401602060405180830381865afa158015611bc5573d6000803e3d6000fd5b505050506040513d601f19601f82011682018060405250810190611be991906138b5565b15611bf8575060059392505050565b5060029392505050565b6000438210611c535760405162461bcd60e51b815260206004820181905260248201527f436865636b706f696e74733a20626c6f636b206e6f7420796574206d696e656460448201526064016109f0565b6000611c5e83611587565b84549091506000611c7186848385612ad8565b90508015611c9e57611c88866115636001846137ba565b54600160201b90046001600160e01b0316611ca1565b60005b6001600160e01b03169695505050505050565b60045460408051918252602082018390527fc565b045403dc03c2eea82b81a0465edad9e2e7fc4d97e11421c209da93d7a93910160405180910390a1600455565b6000611cff6111e9565b611d0e336107e66001436137ba565b1015611d765760405162461bcd60e51b815260206004820152603160248201527f476f7665726e6f723a2070726f706f73657220766f7465732062656c6f7720706044820152701c9bdc1bdcd85b081d1a1c995cda1bdb19607a1b60648201526084016109f0565b6000611d8b8686868680519060200120611332565b90508451865114611dae5760405162461bcd60e51b81526004016109f0906138d7565b8351865114611dcf5760405162461bcd60e51b81526004016109f0906138d7565b6000865111611e205760405162461bcd60e51b815260206004820152601860248201527f476f7665726e6f723a20656d7074792070726f706f73616c000000000000000060448201526064016109f0565b600081815260016020908152604091829020825191820190925281546001600160401b03169081905215611ea05760405162461bcd60e51b815260206004820152602160248201527f476f7665726e6f723a2070726f706f73616c20616c72656164792065786973746044820152607360f81b60648201526084016109f0565b6000611eb2611ead610e01565b612b36565b611ebb43612b36565b611ec59190613918565b90506000611ed4611ead6108b5565b611ede9083613918565b835467ffffffffffffffff19166001600160401b038416178455905060018301805467ffffffffffffffff19166001600160401b0383161790557f7d84a6263ae0d98d3329bd7b46bb4e8d6f98cd35a7adb45c274c8b7fd5ebd5e084338b8b8d516001600160401b03811115611f5657611f56612c9b565b604051908082528060200260200182016040528015611f8957816020015b6060815260200190600190039081611f745790505b508c88888e604051611fa39998979695949392919061393f565b60405180910390a15091979650505050505050565b604051630748d63560e31b81526001600160a01b038481166004830152602482018490526000917f000000000000000000000000000000000000000000000000000000000000000090911690633a46b1a890604401602060405180830381865afa15801561202a573d6000803e3d6000fd5b505050506040513d601f19601f820116820180604052508101906110949190613609565b600a54604080516001600160a01b03928316815291831660208301527f08f74ea46ef7894f65eabfb5e6e695de773a000b47c529ab559178069b226401910160405180910390a1600a80546001600160a01b0319166001600160a01b0392909216919091179055565b606083156120c6575081611097565b6110978383612b9e565b600081116121305760405162461bcd60e51b815260206004820152602760248201527f476f7665726e6f7253657474696e67733a20766f74696e6720706572696f6420604482015266746f6f206c6f7760c81b60648201526084016109f0565b60055460408051918252602082018390527f7e3f7f0708a84de9203036abaa450dccc85ad5ff52f78c170f3edb55cf5e8828910160405180910390a1600555565b60065460408051918252602082018390527fccb45da8d5717e6c4544694297c4ba5cf151d455c9bb0ed4fc7a38411bc05461910160405180910390a1600655565b600060646121bf83610f00565b604051632394e7a360e21b8152600481018590527f00000000000000000000000000000000000000000000000000000000000000006001600160a01b031690638e539e8c90602401602060405180830381865afa158015612224573d6000803e3d6000fd5b505050506040513d601f19601f820116820180604052508101906122489190613609565b6122529190613a2e565b6108af9190613a45565b8254600090819080156123a257600061227a876115636001856137ba565b60408051808201909152905463ffffffff808216808452600160201b9092046001600160e01b0316602084015291925090871610156122fb5760405162461bcd60e51b815260206004820152601760248201527f436865636b706f696e743a20696e76616c6964206b657900000000000000000060448201526064016109f0565b805163ffffffff808816911603612343578461231c886115636001866137ba565b80546001600160e01b0392909216600160201b0263ffffffff909216919091179055612392565b6040805180820190915263ffffffff80881682526001600160e01b0380881660208085019182528b54600181018d5560008d81529190912094519151909216600160201b029216919091179101555b6020015192508391506123f79050565b50506040805180820190915263ffffffff80851682526001600160e01b0380851660208085019182528854600181018a5560008a815291822095519251909316600160201b0291909316179201919091559050815b935093915050565b60006001600160e01b0319821663bf26d89760e01b148061243057506001600160e01b031982166379dd796f60e01b145b8061244b57506001600160e01b03198216630271189760e51b145b806108af57506301ffc9a760e01b6001600160e01b03198316146108af565b6000306001600160a01b037f0000000000000000000000000000000000000000000000000000000000000000161480156124c357507f000000000000000000000000000000000000000000000000000000000000000046145b156124ed57507f000000000000000000000000000000000000000000000000000000000000000090565b50604080517f00000000000000000000000000000000000000000000000000000000000000006020808301919091527f0000000000000000000000000000000000000000000000000000000000000000828401527f000000000000000000000000000000000000000000000000000000000000000060608301524660808301523060a0808401919091528351808403909101815260c0909201909252805191012090565b6000807f7fffffffffffffffffffffffffffffff5d576e7357a4501ddfe92f46681b20a08311156125c8575060009050600361264c565b6040805160008082526020820180845289905260ff881692820192909252606081018690526080810185905260019060a0016020604051602081039080840390855afa15801561261c573d6000803e3d6000fd5b5050604051601f1901519150506001600160a01b0381166126455760006001925092505061264c565b9150600090505b94509492505050565b60008160048111156126695761266961313e565b036126715750565b60018160048111156126855761268561313e565b036126d25760405162461bcd60e51b815260206004820152601860248201527f45434453413a20696e76616c6964207369676e6174757265000000000000000060448201526064016109f0565b60028160048111156126e6576126e661313e565b036127335760405162461bcd60e51b815260206004820152601f60248201527f45434453413a20696e76616c6964207369676e6174757265206c656e6774680060448201526064016109f0565b60038160048111156127475761274761313e565b03610a485760405162461bcd60e51b815260206004820152602260248201527f45434453413a20696e76616c6964207369676e6174757265202773272076616c604482015261756560f01b60648201526084016109f0565b60008581526007602090815260408083206001600160a01b0388168452600381019092529091205460ff16156128275760405162461bcd60e51b815260206004820152602760248201527f476f7665726e6f72566f74696e6753696d706c653a20766f746520616c726561604482015266191e4818d85cdd60ca1b60648201526084016109f0565b6001600160a01b03851660009081526003820160205260409020805460ff1916600117905560ff8416612873578281600001600082825461286891906137a7565b90915550611a469050565b60001960ff851601612893578281600101600082825461286891906137a7565b60011960ff8516016128b3578281600201600082825461286891906137a7565b60405162461bcd60e51b815260206004820152603560248201527f476f7665726e6f72566f74696e6753696d706c653a20696e76616c69642076616044820152746c756520666f7220656e756d20566f74655479706560581b60648201526084016109f0565b8154600160801b90819004600f0b6000818152600180860160205260409091209390935583546001600160801b03908116939091011602179055565b600a5460405163e38335e560e01b81526001600160a01b039091169063e38335e59034906129909088908890889060009089906004016136eb565b6000604051808303818588803b1580156129a957600080fd5b505af11580156129bd573d6000803e3d6000fd5b50505050505050505050565b6000818152600160205260408120600281015460ff16156129ed5750600792915050565b6002810154610100900460ff1615612a085750600292915050565b6000612a1384610dca565b905080600003612a655760405162461bcd60e51b815260206004820152601d60248201527f476f7665726e6f723a20756e6b6e6f776e2070726f706f73616c20696400000060448201526064016109f0565b438110612a76575060009392505050565b6000612a81856111f4565b9050438110612a9557506001949350505050565b612a9e85612bc8565b8015612abd575060008581526007602052604090208054600190910154115b15612acd57506004949350505050565b506003949350505050565b60005b81831015612b2e576000612aef8484612bff565b60008781526020902090915063ffffffff86169082015463ffffffff161115612b1a57809250612b28565b612b258160016137a7565b93505b50612adb565b509392505050565b60006001600160401b0382111561150f5760405162461bcd60e51b815260206004820152602660248201527f53616665436173743a2076616c756520646f65736e27742066697420696e203660448201526534206269747360d01b60648201526084016109f0565b815115612bae5781518083602001fd5b8060405162461bcd60e51b81526004016109f09190612e5d565b600081815260076020526040812060028101546001820154612bea91906137a7565b612bf661085285610dca565b11159392505050565b6000612c0e6002848418613a45565b611097908484166137a7565b600060208284031215612c2c57600080fd5b81356001600160e01b03198116811461109757600080fd5b803560ff81168114612c5557600080fd5b919050565b60008083601f840112612c6c57600080fd5b5081356001600160401b03811115612c8357600080fd5b60208301915083602082850101111561154257600080fd5b634e487b7160e01b600052604160045260246000fd5b604051601f8201601f191681016001600160401b0381118282101715612cd957612cd9612c9b565b604052919050565b60006001600160401b03831115612cfa57612cfa612c9b565b612d0d601f8401601f1916602001612cb1565b9050828152838383011115612d2157600080fd5b828260208301376000602084830101529392505050565b600082601f830112612d4957600080fd5b61109783833560208501612ce1565b60008060008060008060008060e0898b031215612d7457600080fd5b88359750612d8460208a01612c44565b965060408901356001600160401b0380821115612da057600080fd5b612dac8c838d01612c5a565b909850965060608b0135915080821115612dc557600080fd5b50612dd28b828c01612d38565b945050612de160808a01612c44565b925060a0890135915060c089013590509295985092959890939650565b600060208284031215612e1057600080fd5b5035919050565b6000815180845260005b81811015612e3d57602081850181015186830182015201612e21565b506000602082860101526020601f19601f83011685010191505092915050565b6020815260006110976020830184612e17565b6001600160a01b0381168114610a4857600080fd5b60008060008060808587031215612e9b57600080fd5b8435612ea681612e70565b93506020850135612eb681612e70565b92506040850135915060608501356001600160401b03811115612ed857600080fd5b612ee487828801612d38565b91505092959194509250565b60006001600160401b03821115612f0957612f09612c9b565b5060051b60200190565b600082601f830112612f2457600080fd5b81356020612f39612f3483612ef0565b612cb1565b82815260059290921b84018101918181019086841115612f5857600080fd5b8286015b84811015612f7c578035612f6f81612e70565b8352918301918301612f5c565b509695505050505050565b600082601f830112612f9857600080fd5b81356020612fa8612f3483612ef0565b82815260059290921b84018101918181019086841115612fc757600080fd5b8286015b84811015612f7c5780358352918301918301612fcb565b600082601f830112612ff357600080fd5b81356020613003612f3483612ef0565b82815260059290921b8401810191818101908684111561302257600080fd5b8286015b84811015612f7c5780356001600160401b038111156130455760008081fd5b6130538986838b0101612d38565b845250918301918301613026565b6000806000806080858703121561307757600080fd5b84356001600160401b038082111561308e57600080fd5b61309a88838901612f13565b955060208701359150808211156130b057600080fd5b6130bc88838901612f87565b945060408701359150808211156130d257600080fd5b506130df87828801612fe2565b949793965093946060013593505050565b600080600080600060a0868803121561310857600080fd5b8535945061311860208701612c44565b935061312660408701612c44565b94979396509394606081013594506080013592915050565b634e487b7160e01b600052602160045260246000fd5b602081016008831061317657634e487b7160e01b600052602160045260246000fd5b91905290565b6000806040838503121561318f57600080fd5b8235915060208301356131a181612e70565b809150509250929050565b600080604083850312156131bf57600080fd5b823591506131cf60208401612c44565b90509250929050565b6000806000806000608086880312156131f057600080fd5b8535945061320060208701612c44565b935060408601356001600160401b038082111561321c57600080fd5b61322889838a01612c5a565b9095509350606088013591508082111561324157600080fd5b5061324e88828901612d38565b9150509295509295909350565b6000806000806060858703121561327157600080fd5b8435935061328160208601612c44565b925060408501356001600160401b0381111561329c57600080fd5b6132a887828801612c5a565b95989497509550505050565b600080600080608085870312156132ca57600080fd5b84356001600160401b03808211156132e157600080fd5b6132ed88838901612f13565b9550602087013591508082111561330357600080fd5b61330f88838901612f87565b9450604087013591508082111561332557600080fd5b61333188838901612fe2565b9350606087013591508082111561334757600080fd5b508501601f8101871361335957600080fd5b612ee487823560208401612ce1565b60008060006060848603121561337d57600080fd5b833561338881612e70565b92506020840135915060408401356001600160401b038111156133aa57600080fd5b6133b686828701612d38565b9150509250925092565b6000602082840312156133d257600080fd5b813561109781612e70565b600080600080600060a086880312156133f557600080fd5b853561340081612e70565b9450602086013561341081612e70565b935060408601356001600160401b038082111561342c57600080fd5b61343889838a01612f87565b9450606088013591508082111561344e57600080fd5b61345a89838a01612f87565b9350608088013591508082111561324157600080fd5b6000806000806060858703121561348657600080fd5b843561349181612e70565b93506020850135925060408501356001600160401b0381111561329c57600080fd5b600080604083850312156134c657600080fd5b82356134d181612e70565b946020939093013593505050565b600080600080600060a086880312156134f757600080fd5b853561350281612e70565b9450602086013561351281612e70565b9350604086013592506060860135915060808601356001600160401b0381111561353b57600080fd5b61324e88828901612d38565b8183823760009101908152919050565b60208082526018908201527f476f7665726e6f723a206f6e6c79476f7665726e616e63650000000000000000604082015260600190565b600181811c908216806135a257607f821691505b6020821081036135c257634e487b7160e01b600052602260045260246000fd5b50919050565b60208082526021908201527f476f7665726e6f723a2070726f706f73616c206e6f74207375636365737366756040820152601b60fa1b606082015260800190565b60006020828403121561361b57600080fd5b5051919050565b600081518084526020808501945080840160005b8381101561365b5781516001600160a01b031687529582019590820190600101613636565b509495945050505050565b600081518084526020808501945080840160005b8381101561365b5781518752958201959082019060010161367a565b600081518084526020808501808196508360051b8101915082860160005b858110156136de5782840389526136cc848351612e17565b988501989350908401906001016136b4565b5091979650505050505050565b60a0815260006136fe60a0830188613622565b82810360208401526137108188613666565b905082810360408401526137248187613696565b60608401959095525050608001529392505050565b60c08152600061374c60c0830189613622565b828103602084015261375e8189613666565b905082810360408401526137728188613696565b60608401969096525050608081019290925260a0909101529392505050565b634e487b7160e01b600052601160045260246000fd5b808201808211156108af576108af613791565b818103818111156108af576108af613791565b634e487b7160e01b600052603260045260246000fd5b6080815260006137f66080830187613622565b82810360208401526138088187613666565b9050828103604084015261381c8186613696565b91505082606083015295945050505050565b84815260ff841660208201528260408201526080606082015260006110666080830184612e17565b85815260ff8516602082015283604082015260a06060820152600061387e60a0830185612e17565b82810360808401526138908185612e17565b98975050505050505050565b6000600182016138ae576138ae613791565b5060010190565b6000602082840312156138c757600080fd5b8151801515811461109757600080fd5b60208082526021908201527f476f7665726e6f723a20696e76616c69642070726f706f73616c206c656e67746040820152600d60fb1b606082015260800190565b6001600160401b0381811683821601908082111561393857613938613791565b5092915050565b60006101208b8352602060018060a01b038c16818501528160408501526139688285018c613622565b9150838203606085015261397c828b613666565b915083820360808501528189518084528284019150828160051b850101838c0160005b838110156139cd57601f198784030185526139bb838351612e17565b9486019492509085019060010161399f565b505086810360a08801526139e1818c613696565b9450505050506139fc60c08401876001600160401b03169052565b6001600160401b03851660e0840152828103610100840152613a1e8185612e17565b9c9b505050505050505050505050565b80820281158282048414176108af576108af613791565b600082613a6257634e487b7160e01b600052601260045260246000fd5b50049056fe476f7665726e6f723a2072656c617920726576657274656420776974686f7574206d657373616765a2646970667358221220df7bd81e0dcf872d9b012fb482f990dbd7562918d4ff0af0ddd1715e51ad234164736f6c63430008110033",
    "sourcePath": "/Users/joash/Zil-Team-6/src/contracts/governance.sol",
    "compiler": {
        "name": "solc",
        "version": "0.8.17+commit.8df45f5f"
    },
    "functionHashes": {
        "BALLOT_TYPEHASH()": "deaaa7cc",
        "COUNTING_MODE()": "dd4e2ba5",
        "EXTENDED_BALLOT_TYPEHASH()": "2fe3e261",
        "castVote(uint256,uint8)": "56781388",
        "castVoteBySig(uint256,uint8,uint8,bytes32,bytes32)": "3bccf4fd",
        "castVoteWithReason(uint256,uint8,string)": "7b3c71d3",
        "castVoteWithReasonAndParams(uint256,uint8,string,bytes)": "5f398a14",
        "castVoteWithReasonAndParamsBySig(uint256,uint8,string,bytes,uint8,bytes32,bytes32)": "03420181",
        "execute(address[],uint256[],bytes[],bytes32)": "2656227d",
        "getVotes(address,uint256)": "eb9019d4",
        "getVotesWithParams(address,uint256,bytes)": "9a802a6d",
        "hasVoted(uint256,address)": "43859632",
        "hashProposal(address[],uint256[],bytes[],bytes32)": "c59057e4",
        "name()": "06fdde03",
        "onERC1155BatchReceived(address,address,uint256[],uint256[],bytes)": "bc197c81",
        "onERC1155Received(address,address,uint256,uint256,bytes)": "f23a6e61",
        "onERC721Received(address,address,uint256,bytes)": "150b7a02",
        "proposalDeadline(uint256)": "c01f9e37",
        "proposalEta(uint256)": "ab58fb8e",
        "proposalSnapshot(uint256)": "2d63f693",
        "proposalThreshold()": "b58131b0",
        "proposalVotes(uint256)": "544ffc9c",
        "propose(address[],uint256[],bytes[],string)": "7d5e81e2",
        "queue(address[],uint256[],bytes[],bytes32)": "160cbed7",
        "quorum(uint256)": "f8ce560a",
        "quorumDenominator()": "97c3d334",
        "quorumNumerator()": "a7713a70",
        "quorumNumerator(uint256)": "60c4247f",
        "relay(address,uint256,bytes)": "c28bc2fa",
        "setProposalThreshold(uint256)": "ece40cc1",
        "setVotingDelay(uint256)": "70b0f660",
        "setVotingPeriod(uint256)": "ea0217cf",
        "state(uint256)": "3e4f49e6",
        "supportsInterface(bytes4)": "01ffc9a7",
        "timelock()": "d33219b4",
        "token()": "fc0c546a",
        "updateQuorumNumerator(uint256)": "06f3f9e6",
        "updateTimelock(address)": "a890c910",
        "version()": "54fd4d50",
        "votingDelay()": "3932abb1",
        "votingPeriod()": "02a251a3"
    },
    "gasEstimates": {
        "creation": {
            "codeDepositCost": "3009000",
            "executionCost": "infinite",
            "totalCost": "infinite"
        },
        "external": {
            "BALLOT_TYPEHASH()": "328",
            "COUNTING_MODE()": "infinite",
            "EXTENDED_BALLOT_TYPEHASH()": "329",
            "castVote(uint256,uint8)": "infinite",
            "castVoteBySig(uint256,uint8,uint8,bytes32,bytes32)": "infinite",
            "castVoteWithReason(uint256,uint8,string)": "infinite",
            "castVoteWithReasonAndParams(uint256,uint8,string,bytes)": "infinite",
            "castVoteWithReasonAndParamsBySig(uint256,uint8,string,bytes,uint8,bytes32,bytes32)": "infinite",
            "execute(address[],uint256[],bytes[],bytes32)": "infinite",
            "getVotes(address,uint256)": "infinite",
            "getVotesWithParams(address,uint256,bytes)": "infinite",
            "hasVoted(uint256,address)": "2760",
            "hashProposal(address[],uint256[],bytes[],bytes32)": "infinite",
            "name()": "infinite",
            "onERC1155BatchReceived(address,address,uint256[],uint256[],bytes)": "infinite",
            "onERC1155Received(address,address,uint256,uint256,bytes)": "infinite",
            "onERC721Received(address,address,uint256,bytes)": "infinite",
            "proposalDeadline(uint256)": "2695",
            "proposalEta(uint256)": "infinite",
            "proposalSnapshot(uint256)": "2654",
            "proposalThreshold()": "2419",
            "proposalVotes(uint256)": "6841",
            "propose(address[],uint256[],bytes[],string)": "infinite",
            "queue(address[],uint256[],bytes[],bytes32)": "infinite",
            "quorum(uint256)": "infinite",
            "quorumDenominator()": "282",
            "quorumNumerator()": "6953",
            "quorumNumerator(uint256)": "infinite",
            "relay(address,uint256,bytes)": "infinite",
            "setProposalThreshold(uint256)": "infinite",
            "setVotingDelay(uint256)": "infinite",
            "setVotingPeriod(uint256)": "infinite",
            "state(uint256)": "infinite",
            "supportsInterface(bytes4)": "infinite",
            "timelock()": "2409",
            "token()": "infinite",
            "updateQuorumNumerator(uint256)": "infinite",
            "updateTimelock(address)": "infinite",
            "version()": "infinite",
            "votingDelay()": "2376",
            "votingPeriod()": "2399"
        },
        "internal": {
            "_cancel(address[] memory,uint256[] memory,bytes memory[] memory,bytes32)": "infinite",
            "_execute(uint256,address[] memory,uint256[] memory,bytes memory[] memory,bytes32)": "infinite",
            "_executor()": "2156"
        }
    }
}